:100000000C949D020C94C5020C94C5020C94C5027C
:100010000C94C5020C942C0A0C94C5020C94C502D5
:100020000C94C5020C9446080C94C5020C94C502AD
:100030000C94C5020C94C5020C94C5020C94C50224
:100040000C943C080C94C5020C94A3080C94690809
:100050000C94C5020C94D2090C94C5020C94C502F0
:100060000C94C5020C94C502C912B812A00FA00FBF
:10007000A61295128412A00FA00FA00FA00F72124B
:100080005812471238121A12C61A251B3B1C391B6C
:10009000921B161C2A1C711A501E661E7C1E921E74
:1000A000A81EBE1ED41EEA1E001F161F2C1F421FB4
:1000B00007634236B79BD8A71A39685618AEBAAB51
:1000C000558C1D3CB7CC5763BD6DEDFD753EF617E5
:1000D0007231BF000000803F08000000BE9224493A
:1000E000123EABAAAA2ABECDCCCC4C3E000000806A
:1000F000BEABAAAAAA3E00000000BF000000803FDD
:100100000000000000084178D3BB4387D1133D199C
:100110000E3CC3BD4282AD2B3E68EC8276BED98FC9
:10012000E1A93E4C80EFFFBE01C4FF7F3F0000000D
:100130000000FF03E203D603CD03C503BE03B803EB
:10014000B303AD03A803A4039F039B039703930387
:100150008F038B038703840381037D037A03770373
:10016000740371036E036B036803650362035F032B
:100170005D035A0357035503520350034D034B03CA
:1001800049034603440341033F033D033B03380354
:1001900036033403320330032D032B0329032703D3
:1001A0002503230321031F031D031B031903170347
:1001B0001503130311030F030D030C030A030803B4
:1001C0000603040302030003FF02FD02FB02F9021F
:1001D000F802F602F402F202F102EF02ED02EB0283
:1001E000EA02E802E602E502E302E102E002DE02E0
:1001F000DC02DB02D902D702D602D402D302D1023A
:10020000CF02CE02CC02CB02C902C802C602C4028F
:10021000C302C102C002BE02BD02BB02BA02B802E2
:10022000B702B502B402B202B102AF02AE02AC0232
:10023000AB02A902A802A602A502A302A202A00282
:100240009F029E029C029B029902980296029502CE
:100250009402920291028F028E028D028B028A0218
:1002600088028702860284028302810280027F0262
:100270007D027C027A0279027802760275027402AB
:100280007202710270026E026D026B026A026902F2
:100290006702660265026302620261025F025E0239
:1002A0005D025B025A02590257025602550253027E
:1002B000520251024F024E024D024C024A024902C2
:1002C00048024602450244024202410240023E0206
:1002D0003D023C023B023902380237023502340249
:1002E0003302310230022F022E022C022B022A028C
:1002F00028022702260225022302220221021F02CF
:100300001E021D021C021A0219021802170215020F
:1003100014021302110210020F020E020C020B0251
:100320000A02080207020602050203020202010293
:100330000002FE01FD01FC01FA01F901F801F701DB
:10034000F501F401F301F101F001EF01EE01EC011F
:10035000EB01EA01E801E701E601E501E301E20161
:10036000E101E001DE01DD01DC01DA01D901D801A2
:10037000D701D501D401D301D101D001CF01CE01E4
:10038000CC01CB01CA01C801C701C601C401C30128
:10039000C201C101BF01BE01BD01BB01BA01B9016A
:1003A000B701B601B501B301B201B101B001AE01AF
:1003B000AD01AC01AA01A901A801A601A501A401F2
:1003C000A201A101A0019E019D019C019A01990138
:1003D0009801960195019401920191018F018E017E
:1003E0008D018B018A0189018701860185018301C5
:1003F000820180017F017E017C017B01790178010E
:100400007701750174017201710170016E016D0156
:100410006B016A01690167016601640163016101A1
:1004200060015F015D015C015A01590157015601EC
:1004300054015301510150014E014D014B014A013C
:100440004801470145014401420141013F013E018C
:100450003C013B01390137013601340133013101DF
:1004600030012E012C012B01290128012601240134
:10047000230121011F011E011C011A01190117018D
:1004800015011401120110010E010D010B010901EA
:1004900007010601040102010001FF00FD00FB004D
:1004A000F900F700F500F300F200F000EE00EC00B8
:1004B000EA00E800E600E400E200E000DE00DC0024
:1004C000DA00D800D600D400D200CF00CD00CB0097
:1004D000C900C700C400C200C000BE00BB00B90014
:1004E000B600B400B200AF00AD00AA00A800A5009D
:1004F000A200A0009D009A009700940091008E0039
:100500008B008800850082007E007B0078007400EC
:1005100070006C006800640060005B0057005200CF
:100520004C00470041003A00320029001D00000045
:1005300000006307F5073508391711241FBECFEFF8
:10054000D8E0DEBFCDBF12E0A0E0B1E0E0ECFDE41A
:1005500002C005900D92AC32B107D9F725E0ACE2AC
:10056000B2E001C01D92A438B207E1F712E0CDE974
:10057000D2E004C02197FE010E949925C939D10714
:10058000C9F70E947F0C0C94DE260C940000FC013D
:10059000718360830895FC0151834083FB013183A3
:1005A0002083089590932F0280932E022EEF2093A4
:1005B000320220933002892B39F0109207011092F9
:1005C000060110921801089510920B0110920A0171
:1005D00082E080931801089590932D0280932C025D
:1005E0002EEF2093310220933702892B41F0109295
:1005F00015011092140187E080931901089510925B
:1006000009011092080181E0809319010895CF92A9
:10061000DF92EF92FF920F931F93CF93DF93EC0142
:1006200068834983642F70E080E090E00E94592243
:1006300020E030E040E05CE30E94E5226B017C01B9
:100640008E01045F1F4FC0E0D0E0BE010D2E000CF4
:10065000880B990B0E94592220E030E04FE753E4C9
:100660000E94B621A70196010E94522320E030E0AB
:100670004FE753E40E94E5220E942822F80161938B
:100680008F012196C115F1E0DF07F9F6DF91CF91D7
:100690001F910F91FF90EF90DF90CF900895372F2B
:1006A000262F8230910509F468C02CF4009769F078
:1006B0000197B9F108958430910509F4B6C00CF49E
:1006C00088C0059709F4DCC00895F999FECF8EE142
:1006D00090E092BD81BDF89A80B5381759F0F9992C
:1006E000FECF8EE190E092BD81BD70BDF894FA9A84
:1006F000F99A7894F999FECF8FE190E092BD81BD8F
:10070000F89A80B5281709F4E5C0F999FECF8FE172
:1007100090E092BD81BD60BDF894FA9AF99A789400
:100720000895F999FECF80E290E092BD81BDF89ADC
:1007300080B5381759F0F999FECF80E290E092BD6C
:1007400081BD70BDF894FA9AF99A7894F999FECF20
:1007500081E290E092BD81BDF89A80B5281709F436
:10076000B9C0F999FECF81E290E092BD81BD60BD34
:10077000F894FA9AF99A78940895F999FECF82E25A
:1007800090E092BD81BDF89A80B5381759F0F9997B
:10079000FECF82E290E092BD81BD70BDF894FA9ADE
:1007A000F99A7894F999FECF83E290E092BD81BDE9
:1007B000F89A80B5281709F48DC0F999FECF83E225
:1007C00090E092BD81BD60BDF894FA9AF99A789450
:1007D0000895F999FECF84E290E092BD81BDF89A28
:1007E00080B5381759F0F999FECF84E290E092BDB8
:1007F00081BD70BDF894FA9AF99A7894F999FECF70
:1008000085E290E092BD81BDF89A80B5281709F481
:1008100061C0F999FECF85E290E092BD81BD60BDD7
:10082000F894FA9AF99A78940895F999FECF86E2A5
:1008300090E092BD81BDF89A80B5381759F0F999CA
:10084000FECF86E290E092BD81BD70BDF894FA9A29
:10085000F99A7894F999FECF87E290E092BD81BD34
:10086000F89A80B52817B1F1F999FECF87E290E0A8
:1008700092BD81BD60BDF894FA9AF99A7894089572
:10088000F999FECF88E290E092BD81BDF89A80B5DB
:10089000381759F0F999FECF88E290E092BD81BDFA
:1008A00070BDF894FA9AF99A7894F999FECF89E292
:1008B00090E092BD81BDF89A80B5281759F0F9995A
:1008C000FECF89E290E092BD81BD60BDF894FA9AB6
:1008D000F99A789408958230910589F12CF4009763
:1008E00061F00197D9F06FC08430910509F449C0D7
:1008F000BCF1059709F456C066C0F999FECF8EE1A8
:1009000090E092BD81BDF89A80B5F999FECF2FE1B4
:1009100030E032BD21BDF89A20B557C0F999FECF1D
:1009200080E290E092BD81BDF89A80B5F999FECF42
:1009300021E230E032BD21BDF89A20B546C0F999D8
:10094000FECF82E290E092BD81BDF89A80B5F99920
:10095000FECF23E230E032BD21BDF89A20B535C08C
:10096000F999FECF84E290E092BD81BDF89A80B5FE
:10097000F999FECF25E230E032BD21BDF89A20B5CD
:1009800024C0F999FECF86E290E092BD81BDF89A2D
:1009900080B5F999FECF27E230E032BD21BDF89A4B
:1009A00020B513C0F999FECF88E290E092BD81BDD9
:1009B000F89A80B5F999FECF29E230E032BD21BD29
:1009C000F89A20B502C020E080E090E0982F8827B8
:1009D000820F911D0895372F262F8430910519F02D
:1009E000059761F10895F999FECF88E790E092BDEF
:1009F00081BDF89A80B5381759F0F999FECF88E78C
:100A000090E092BD81BD70BDF894FA9AF99A7894FD
:100A1000F999FECF89E790E092BD81BDF89A80B543
:100A20002817B1F1F999FECF89E790E092BD81BD19
:100A300060BDF894FA9AF99A78940895F999FECFDE
:100A40008AE790E092BD81BDF89A80B5381759F0D9
:100A5000F999FECF8AE790E092BD81BD70BDF89410
:100A6000FA9AF99A7894F999FECF8BE790E092BDC3
:100A700081BDF89A80B5281759F0F999FECF8BE718
:100A800090E092BD81BD60BDF894FA9AF99A78948D
:100A90000895882319F08130B9F00895F999FECFAF
:100AA0008CE291E092BD81BDF89A80B5681709F19A
:100AB000F999FECF8CE291E092BD81BD60BDF894C2
:100AC000FA9AF99A78940895F999FECF8EE291E016
:100AD00092BD81BDF89A80B5681759F0F999FECF9B
:100AE0008EE291E092BD81BD60BDF894FA9AF99AC8
:100AF00078940895F999FECF20E931E032BD21BD07
:100B0000F89A90B5891759F0F999FECF20E931E0AC
:100B100032BD21BD80BDF894FA9AF99A789408956F
:100B200081309105D9F08230910569F1892B09F066
:100B30003FC0F999FECF8EE591E092BD81BDF89A54
:100B400080B5681759F0F999FECF8EE591E092BD16
:100B500081BD60BDF894FA9AF99A7894F999FECF1C
:100B60008FE591E092BD81BDF89A80B5681759F084
:100B7000F999FECF8FE591E092BD81BD60BDF894FB
:100B8000FA9AF99A7894F999FECF80E691E092BDAD
:100B900081BDF89A80B5681759F0F999FECF80E6C3
:100BA00091E092BD81BD60BDF894FA9AF99A78946B
:100BB00008959F92AF92BF92CF92DF92EF92FF92F1
:100BC0000F931F93CF93DF93982ED62FB42EC22F5F
:100BD000A32ECD28C9F080E00E944905692D81E04F
:100BE0000E9449058B2D0E947A056C2F80E090E0D1
:100BF0000E949005602F81E090E00E9490056E2D8C
:100C000082E090E00E9490054B2D6D2F8AE294E0E7
:100C10000E940703C0937702A092780200937902A2
:100C200010937A02C7018B3F910514F08AEF90E090
:100C300080937B02DF91CF911F910F91FF90EF90F6
:100C4000DF90CF90BF90AF909F900895892B29F1AE
:100C50008091420590914305609140057091410556
:100C600068177907C4F084E090E00E94EB0480915B
:100C70005405909155056091520570915305681780
:100C8000790724F085E090E00C94EB04BC0185E04A
:100C900090E00C94EB04BC01E6CF0895CF93DF9372
:100CA000EC0181E090E00E94D20281E090E00E949D
:100CB000EC02809130028330E4F3209709F042C0C7
:100CC00080E090E00E94D20280E090E00E94EC027E
:100CD000809132028330E4F3CD2B81F060910A01E0
:100CE00070910B0180E090E00E944F036091080139
:100CF0007091090182E090E00E944F0383E090E050
:100D00000E946B04EC0182E090E00E946B049E0163
:100D1000AC0161E572E08FE492E00E94CB0281E0D9
:100D200090E00E946B04EC0180E090E00E946B0474
:100D30009E01AC016DE672E08BE692E0DF91CF910F
:100D40000C94CB02609106017091070181E090E064
:100D50000E944F03609114017091150183E090E0AF
:100D60000E944F03ADCF9C01672B71F0892B51F589
:100D700060E072E08AE395E00E94C70260E072E002
:100D80008CE495E00C94C70290913402911104C058
:100D9000809133028823C1F31092340210923302FF
:100DA000232BE9F460910E0170910F018AE395E025
:100DB0000E94C70260910C0170910D018CE495E0D6
:100DC0000C94C70260E072E084E090E00E944F0360
:100DD00060E072E085E090E00E944F03C9CF60912F
:100DE0000E0170910F0184E090E00E944F0360912A
:100DF0000C0170910D0185E090E00E944F0384E0AA
:100E000090E00E946B04BC018AE395E00E94C70257
:100E100085E090E00E946B04BC018CE495E00C94AA
:100E2000C7020F931F93CF93DF93EC018B010E94B6
:100E30004E06B801CE01DF91CF911F910F910C9416
:100E4000B3060895FC018AE090E0918380831382C9
:100E500012821582148217821682118610860895D6
:100E6000FC018AE090E091838083148213821682D1
:100E70001582108617820895AF92BF92CF92DF92AB
:100E8000EF92FF920F931F93CF93DF93EC015B01DF
:100E90006A0179010E942207BB86AA86DD86CC867C
:100EA000FF86EE86198B088B1A8ACE014396DF9156
:100EB000CF911F910F91FF90EF90DF90CF90BF9057
:100EC000AF900C9430070F931F93E1E8F2E088E8AD
:100ED00093E1A0E0B0E080839183A283B38328E70D
:100EE00025832AE02683E1E7F2E0108211828283E3
:100EF0009383A483B5838FEF90E097838683918754
:100F000080878FEF8287138614861586168617864C
:100F100006E011E02AE031E040E352E062E372E0F3
:100F200085E592E00E943C0704E111E028E031E011
:100F300047E352E061E372E089E392E00E943C07FC
:100F40001F910F9108958F929F92AF92BF92CF926F
:100F5000DF92EF92FF920F931F93CF93DF93CDB762
:100F6000DEB7FC017183608353834283358324831E
:100F700017830683F186E086D386C286B586A4866B
:100F8000978686868F859889918B808B128A138AA3
:100F9000148A158A168A178A108E118E128E8989E4
:100FA0009A89948F838F158E168E178E10A28BE4DC
:100FB0009CE4A0E0B0E081A392A3A3A3B4A315A2F4
:100FC00016A217A210A611A612A613A614A615A65D
:100FD000DF91CF911F910F91FF90EF90DF90CF9015
:100FE000BF90AF909F908F9008958F929F92AF92F5
:100FF000BF92CF92DF92EF92FF920F931F9386E200
:1010000094E09F938F938AEB92E09F938F930F2EA0
:10101000F8EF8F2EF3E09F2EF02D0F2EF7EFAF2E6F
:10102000F3E0BF2EF02D6C010F2EF5E8EF2EF2E06D
:10103000FF2EF02D0BE412E027E632E04CE752E001
:1010400063E775E08CE892E00E94A3070F900F9091
:101050000F900F901F910F91FF90EF90DF90CF9026
:10106000BF90AF909F908F9008958EE191E0909304
:10107000BC028093BB0208951F920F920FB60F928D
:1010800011240F900FBE0F901F9018951F920F9272
:101090000FB60F9211248F939F93AF93BF93EF934B
:1010A000FF93E2E2F4E080819181A281B381019615
:1010B000A11DB11D80839183A283B383FF91EF9122
:1010C000BF91AF919F918F910F900FBE0F901F9086
:1010D00018951F920F920FB60F9211248F939F9322
:1010E000EF93FF9380911304811127C08091C10079
:1010F00081608093C100E091130481E08E0F8093A2
:101100001304F0E0E150FC4F87818093C60090917A
:10111000130480911204981307C01092130484E9F9
:101120008093C10010920504FF91EF919F918F91E0
:101130000F900FBE0F901F9018958091C1008E7F69
:101140008093C100D8CF1F920F920FB60F92112437
:101150002F933F934F935F938F939F93AF93BF933F
:10116000EF93FF938091C0008091C1002091C60051
:1011700081FF6DC080912104882361F08091C203BA
:101180008F5F8093C2038091C303811103C08FEFEF
:101190008093C2031092210410921404109215043B
:1011A0001092160410921704109218041092190449
:1011B00010921A0410921B0410921C0410921D0429
:1011C00010921E0410921F04822F8C70843039F00C
:1011D00008F44EC0883011F08C3009F48CE0809314
:1011E000200440910404822F807690E095958795A5
:1011F00095958795959587959595879595958795D7
:1012000050E031E08417950709F030E03093C403D3
:10121000E091210481E08E0F80932104F0E0E15001
:10122000FC4F258B9091210480912004981721F187
:10123000FF91EF91BF91AF919F918F915F914F91EE
:101240003F912F910F900FBE0F901F901895809196
:1012500021048111DDCF8091C2038F5F8093C2038F
:101260008091C3038111E4CF8FEF8093C203E0CF5D
:101270008111B5CF82E0B3CF1092210440912004B8
:1012800050E041505109E0E0141615067CF480E06E
:1012900090E0DC01AC5EBB4F2C91E227F0E0EF5315
:1012A000FD4FE0810196841795079CF3A0912004DF
:1012B000B0E0A250BC4F55968C918E1741F08091B2
:1012C000C3038F5F09F48FEF8093C303B1CF809185
:1012D000140420910404807690E095958795959567
:1012E000879595958795959587959595879530E000
:1012F0008217930721F08091140487FF99CF809182
:10130000220490912304A0912404B09125042091FB
:10131000B200BA2FA92F982F8827820F911DA11DE7
:10132000B11D8093260490932704A0932804B093C2
:1013300029048093000490930104A0930204B093C5
:101340000304809114048F708093D003809115045E
:101350008093C603809116048093C703809117047D
:101360008093C803809118048093C9038091190465
:101370008093CA0380911A048093CB0380911B044D
:101380008093CC0380911C048093CD0380911D0435
:101390008093CE0380911E048093CF0381E08093DD
:1013A000C50346CF1F920F920FB60F9211242F93B1
:1013B0008F939F93EF93FF93E0913802F0E0319782
:1013C000E770FF27EA5EFE4F8081853021F495B1FA
:1013D00080E1892785B9E0913802F0E03197E77024
:1013E000FF27EA5EFE4FE08120917800809179002E
:1013F00090E0982F8827820F911DEE0FFF0BEA5F78
:10140000FE4F91838083E0913802F0E03197E770DE
:10141000FF27EA5EFE4FE0810E2E000CFF0BE05D21
:10142000FD4F80818F5F8083809138028F5F809332
:101430003802E0913802E770F0E0EA5EFE4F80810A
:1014400080937C00FF91EF919F918F912F910F904E
:101450000FBE0F901F9018951F920F920FB60F920C
:1014600011240F900FBE0F901F9018958AB18067BE
:101470008AB95C9808955F98089580E090E00E9492
:10148000D20280E090E00E94EC02109232021092B0
:10149000310280913202909131028902C0011124FF
:1014A000892BB9F381E090E00E94D20281E090E0C4
:1014B0000E94EC02109230021092370280913002AA
:1014C000909137028902C0011124892BB9F38091D0
:1014D0003402811104C0809133028823C1F3109239
:1014E00034021092330280913402811105C0809140
:1014F00033028823C1F308950895E0915001F091DB
:1015000051011082E0914E01F0914F011082E09163
:101510004C01F0914D011082E0914A01F0914B0194
:101520001082E0914801F09149011082E091BB02E4
:10153000F091BC021082E0914601F09147011082C7
:10154000E0914401F09145011082E0914201F09157
:1015500043011082E0913E01F0913F011082E09141
:101560003C01F0913D011082E0913A01F0913B0184
:101570001082E0913801F09139011082E09136013A
:10158000F09137011082E0913401F0913501108221
:10159000E0913201F09133011082E0913001F0913D
:1015A00031011082E0912E01F0912F0110820895F7
:1015B000A0914001B0914101E0913E01F0913F01C5
:1015C0009C918081890FE0913C01F0913D019081D7
:1015D000890FE0913A01F0913B019081890F21F050
:1015E00083E08093BD0208951092BD02089583E8C0
:1015F00083BD16BC109285001092840081EA84BDE0
:101600008FEF90E0909387008093860082EF809325
:10161000800010926E0081E085BD81E180938100A1
:1016200013BC0895CF93DF932091BD02233008F0BF
:1016300057C0EC016D307105E4F08A819B81892BE4
:10164000E9F5E0915401F0915501808190E068172F
:1016500079070CF451C0BC018B3F91050CF049C0D7
:10166000E881F9810190F081E02DCE01DF91CF91E9
:101670000994643FBFEF7B0754F58A819B810197F2
:1016800009F041C0CB0166307F4F14F486E09FEF34
:10169000E0915401F0915501608170E07195619580
:1016A0007109681779070CF4BC01E881F98102809F
:1016B000F381E02DCE01DF91CF910994E881F9818A
:1016C0000480F581E02D60E070E0CE010995E881AD
:1016D000F9810680F781E02DCE01DF91CF91099449
:1016E000DC01ED91FC910680F781E02DDF91CF9137
:1016F00009946AEF70E0B4CFCB01BC018B3F910538
:101700000CF4AECFF6CFE881F9810480F581E02DAD
:1017100061E070E0CE010995DACF17BC18BC0895DE
:101720008FEF90E090938B0080938A0090938900D4
:101730008093880008958CE795E00E948D0B88E7E0
:1017400095E00E94900B0E94360A0C943B0A0E947E
:10175000F70A6DE070E08CE795E00E94120B63EFF2
:101760007FEF8CE795E00E94120B6DE070E088E758
:1017700095E00E94120B63EF7FEF88E795E00E94EF
:10178000120B0C949B0B8430910519F0059791F086
:1017900022C0F999FECF88E790E092BD81BDF89A0A
:1017A00080B5F999FECF29E730E032BD21BDF89A26
:1017B00020B513C0F999FECF8AE790E092BD81BDB4
:1017C000F89A80B5F999FECF2BE730E032BD21BD04
:1017D000F89A20B502C020E080E090E0982F88279A
:1017E000820F911D0895009719F0019751F012C0D2
:1017F000F999FECF8CE291E092BD81BDF89A80B557
:101800000895F999FECF8EE291E092BD81BDF89ADC
:1018100080B508950895F999FECF80E991E092BDD1
:1018200081BDF89A80B508958130910571F08230BC
:101830009105A1F0892BD9F4F999FECF8EE591E0BD
:1018400092BD81BDF89A80B50895F999FECF8FE5D4
:1018500091E092BD81BDF89A80B50895F999FECFC7
:1018600080E691E092BD81BDF89A80B5089580E050
:1018700008952AE531E0FC013183208308952CECA2
:1018800031E0FC0131832083089526ED31E0FC0135
:1018900031832083089520EE31E0FC0131832083E1
:1018A00008952AEE31E0FC0131832083089524EF6E
:1018B00031E0FC0131832083089522E132E0FC0114
:1018C000318320831682158208952EEF31E0FC01CA
:1018D0003183208308952CE132E0FC0131832083A1
:1018E00016821582089526E232E0FC0131832083BE
:1018F00008950E94BD2508950E9455260895CF930E
:10190000DF93CDB7DEB769970FB6F894DEBF0FBE91
:10191000CDBF83E59CE79093C0028093BF02E1ECCA
:10192000F2E040E050E035EDCA01880F991F8327AF
:10193000242F220F47FD282F822F880F8327922FD5
:10194000990F27FD982F892F880F8327292F220F82
:1019500097FD282F822F880F8327922F990F27FD1D
:10196000982F892F880F8327292F220F97FD282F43
:10197000822F880F8327922F990F27FD982F892F69
:10198000880F8327292F220F97FF822F982F990FD7
:101990009327282F220F87FDD2C4822F81934F5F78
:1019A0005F4F411501E0500709F0BECF1092B20021
:1019B0001092B00087E08093B10081E280937000C4
:1019C000F89482E08093C00084E98093C10086E0AF
:1019D0008093C2001092C50084E08093C400789484
:1019E0008FEF80937E0080937A000E943D0A0E94D0
:1019F000A70B0E949B0B8091F3039091F403009737
:101A000011F00E947C0C85E090E00E94790C9A8392
:101A100089830E943F0C09811A811093F40300937B
:101A2000F3031092E70383E0809304040E940B0CFD
:101A3000898380E090E00E94F30B80932A0419814F
:101A400010932B04612F70E080E090E00E945922F7
:101A500020E030E040E05CE30E94E5226B017C0185
:101A600006E314E01A82198229813A81B901330F01
:101A7000880B990B0E94592220E030E04FE753E495
:101A80000E94B621A70196010E94522320E030E077
:101A90004FE753E40E94E5220E942822D8016D936B
:101AA0008D01E981FA813196FA83E983E115F140EC
:101AB000D9F685E090E00E94C30B7C0184E090E0C1
:101AC0000E94C30B6C0185E090E00E946B049A8336
:101AD000898384E090E00E946B048C0181E090E0B7
:101AE0000E94F30B282F30E030935B0520935A05BA
:101AF000823011F40C94A91610F40C9499168330CA
:101B000011F40C948D16843051F480E09EEF909384
:101B10004705809346051092590510925805109379
:101B20003B0500933A05C601800F911F90933D0538
:101B300080933C05D0924105C09240050C191D09C7
:101B400010933F0500933E05D0924305C092420595
:101B500009811A8110934D0500934C05C8018E0D23
:101B60009F1D90934F0580934E05F0925305E09290
:101B700052050E191F091093510500935005F0925C
:101B80005505E092540582E090E00E94140C8B838E
:101B900081E090E00E94140C898380E090E00E9434
:101BA000140C90E090937802809377021981812F32
:101BB00090E090937A02809379020B8100937B02EC
:101BC00081E090E00E946B049A83898380E090E03A
:101BD0000E946B0490936C0280936B0209811A81BE
:101BE00010936E0200936D0283E090E00E946B04FC
:101BF0009A83898382E090E00E946B049093500264
:101C000080934F0209811A8110935202009351026E
:101C10002090C2013090C3010091C6011091C7010C
:101C20001A8309838090C4019090C5010091C0017E
:101C30001091C1011C830B834090BA015090BB01ED
:101C40000091BC011091BD011C870B870091BE0162
:101C50001091BF011A870987E090B801F090B9018F
:101C600060902801709029010091220110912301B8
:101C70001E830D83A0902601B090270100912001C2
:101C80001091210118870F8300912A0110912B01D7
:101C90001C8B0B8B00912401109125011E8B0D8B49
:101CA00000912C0110912D011A8B098BCC24CA9420
:101CB000D12CD1018C91811120C120E030E0D301E1
:101CC0008C91882309F414C22C91022E000C330B42
:101CD0008091F70390E0821793071CF48C91809316
:101CE000F703F3011082F894AD81BE810D911C9130
:101CF0007894E091FB03F091FC0386819781081BA7
:101D0000190BE091FD03F091FE0386819781081B7A
:101D1000190BE091F903F091FA03FE87ED878281B8
:101D20009381181619060CF073C3C29774F4AD852D
:101D3000BE8554968D919C915597181619060CF0F6
:101D40004EC4C2970CF401C3FD01EF5BFF4F10823C
:101D5000ED85FE851183008384819581081B190B15
:101D60001383028342855385041715070CF4F4C2CC
:101D7000D786C68680E090E0EEEFF1E06FEF70E08E
:101D8000101611060CF006C302301105E4F4AD85FF
:101D9000BE8554962D913C915597121613060CF062
:101DA00022C452962D913C91539759963C932E9371
:101DB000589756964D915C915797241B350B5D961D
:101DC0003C932E935C97AD85BE85D596FC93EE93A0
:101DD000D497D9969C938E93D89750962D913C91F9
:101DE0005197EE0FFF1FEE5CFE4F45915491FC01A1
:101DF000EE0FFF1FEE5CFE4FA591B491420F531FF3
:101E00005770ED85FE8553A742A73C5FA20FB31F15
:101E1000B770B5A7A4A7161617060CF0C2C2FB012F
:101E2000F595E795F595E795E05AFE4F8081AD85EC
:101E3000BE85D2968C938091F3039091F403DC01DC
:101E4000ED91FC910280F381E02D0995E0915F0214
:101E5000F0916002808182300CF4AAC42081022EAD
:101E6000000C330B8091670290E0821793071CF4FB
:101E70008081809367021082F894E0916302F09170
:101E8000640240815181789480916B0290916C0240
:101E9000481B590B5093700240936F02A091570258
:101EA000B0915802E09155029A010E949F25DC01F1
:101EB000CB010E2E04C0B595A795979587950A94EA
:101EC000D2F790935C0280935B02A0915902B0918B
:101ED0005A020E949F25DC01CB0104C0B595A7954D
:101EE00097958795EA95D2F790935E0280935D026D
:101EF000D1018C91882309F4E0CE1C92F894809152
:101F0000F3039091F403DC01ED91FC910190F081D9
:101F1000E02D0995E981FA8190818917F9F0008116
:101F20000D878091F3039091F403009711F00E94C4
:101F30007C0C1D85812F90E08031910508F475C2DD
:101F400085E090E00E94790C9E878D870E943F0C6F
:101F50000D851E851093F4030093F303A981BA81C4
:101F60008C91863009F47AC2873008F446C28C30EE
:101F700009F4A1C38D3009F476C38B3009F45CC336
:101F8000EB81FC818081882361F010828091F303D2
:101F90009091F403DC01ED91FC910480F581E02D3A
:101FA000099578948091E7038093FF038091F30370
:101FB0009091F403DC01ED91FC910280F381E02D1E
:101FC0000995809105048111E9C1F201808187FDA5
:101FD000E5C18E5F8093120480910404F0E18F9F2D
:101FE000C0011124AB85BC852C91282BE985FA858D
:101FF0009081F0E49F9FC0011124822B80930604FE
:10200000D2018C9118160CF040C0F70180818093AA
:1020100007048C918230CCF18181809308048C91EB
:1020200083309CF18281809309048C9184306CF11F
:10203000838180930A048C9185303CF18481809364
:102040000B048C9186300CF1858180930C048C916B
:102050008730DCF0868180930D048C918830ACF061
:10206000878180930E048C9189307CF080858093E9
:102070000F048C918A304CF08185809310048C91F0
:102080008B301CF0828580931104EFEFD201EC932A
:102090004091120450E0415051092091120430E067
:1020A00021503109E0E0121613067CF480E090E044
:1020B000DC01AA5FBB4F6C91E627F0E0EF53FD4FC8
:1020C000E0810196821793079CF3DA01A150BC4F7F
:1020D0001796EC9310921304F1E0F09305040CEBC7
:1020E0000093C10021E030E0D3018C918111ECCD4F
:1020F000F5018081882309F424C12081022E000C7F
:10210000330B8091F80390E0821793071CF48081D1
:102110008093F803D5011C92F894EF81F885008133
:1021200011817894E091FB03F091FC038085918507
:10213000081B190BE091FD03F091FE03808591854A
:10214000081B190B2091F9033091FA033E872D8764
:10215000D90153961C930E93529756968D919C914C
:102160005797081B190B55961C930E9354975C9622
:102170004D915C915D97041715070CF41EC1919663
:10218000DC92CE92909780E090E0EEEFF1E06FEF7E
:1021900070E0101611060CF02CC102301105DCF4B1
:1021A000AD85BE8512962D913C911397121613069C
:1021B0000CF0B8C22D913C91119717963C932E9339
:1021C000169714964D915C911597241B350B1B9611
:1021D0003C932E931A97AD85BE85D796FC93EE93CC
:1021E000D697DB969C938E93DA9792962D913C919D
:1021F0009397EE0FFF1FEE5CFE4F45915491FC014B
:10220000EE0FFF1FEE5CFE4FA591B491420F531FDE
:102210005770ED85FE8557A746A73C5FA20FB31FF9
:10222000B770B1ABA0AB161617060CF0F5C0FB01EA
:10223000F595E795F595E795E05AFE4F8081AD85D8
:10224000BE85D3968C93809172058F5F843108F49C
:10225000B1C010927205809173058F5F80937305F2
:10226000809177058111E7CDE0916005F0916105DE
:10227000F98FE88F0091640510916505BF01601B1F
:10228000710B77FDE0C220916605309167053E87AE
:102290002D87888D998D821B930B97FDD0C240911D
:1022A0006205509163059A01201B310B37FDD3C2A3
:1022B000FA01AD85BE85EA1BFB0BF7FDC8C26817A6
:1022C000790708F0A3C16217730708F09FC16E1762
:1022D0007F0708F09BC1A88DB98DA0935C05B093D2
:1022E0005D051F8B00935E0510935F0520916805C7
:1022F00040916905E22FF0E09F010E94A7256D87BC
:102300007E878F87988B50E09A01A02FBF890E940B
:10231000A7250D851E852F853889600F711F821FA7
:10232000931F9F01240F351F2F5F3F4F40E050E068
:102330000E94582530937605209375057CCD892F12
:102340002DCB232B09F4B5CC76CDED85FE85EF5B47
:10235000FF4FB1E0B083FCCC17FD2CC12FEF30E074
:10236000D8010E94B6259A01550F440B550B0E94C7
:102370007A25B901AD85BE851F963C932E931E9795
:10238000F901E150FF4FC601821B930B1016110695
:102390000CF4FACC119501951109F6CC21E030E04E
:1023A0008ECCEE27FF27E61BF70BF595E795F59505
:1023B000E7953ACD8093720553CF17FD99C12FEF62
:1023C00030E0D8010E94B6259A01550F440B550BF9
:1023D0000E947A25B901ED85FE8531A320A3F9017C
:1023E000E150FF4FC601821B930B101611060CF42F
:1023F000D4CE119501951109D0CE843009F444C191
:10240000853009F0BDCDF40180818093DF03B8CD24
:1024100091958195910989CCEE27FF27E61BF70B53
:10242000F595E795F595E79507CFFC01EC5CFF4F37
:102430000C94992585E090E00E94790C9E878D8709
:102440000E94730C0D851E851093F4030093F30313
:10245000A981BA818C91863009F086CDD40111967C
:102460008C918111E9C1F40180818093DE0388CDD4
:1024700087E090E00E94790C9E878D870E946B0C0C
:102480000D851E851093F4030093F30367CD87E059
:1024900090E00E94790C9E878D870E945D0C0D85CF
:1024A0001E851093F4030093F3031092E70356CDB7
:1024B00087E090E00E94790C9E878D870E94390CFE
:1024C000E8E0F2E0AD85BE851196FC93EE9316969A
:1024D0001C921E921597B093F403A093F3031092ED
:1024E000E7033CCD85E090E00E94790C9E878D87C4
:1024F0000E94570C0D851E851093F4030093F3037F
:1025000011E01093E7032ACD85E090E00E94790C5A
:102510009E878D870E94510C0D851E851093F403B4
:102520000093F3031092E70319CD85E090E00E9439
:10253000790C9E878D870E944B0C0D851E8510930C
:10254000F4030093F3031092E70308CD85E090E0D5
:102550000E94790C9E878D870E94650C0D851E85D3
:102560001093F4030093F30311E01093E703F6CC08
:1025700085E090E00E94790C9E878D870E94450C33
:102580000D851E851093F4030093F3031092E70367
:10259000E5CC85E090E00E94790C9E878D870E94B3
:1025A0003F0C0D851E851093F4030093F3031092E6
:1025B000E703D4CC4485558588279927841B950B40
:1025C000801791070CF4CACE21E03FEF37872687AA
:1025D0008EEF91E0E0E0F0E061E07FEFD1CB91950C
:1025E00081959109AECB52964D915C9153975B9634
:1025F0005C934E935A9756962D913C915797241B76
:10260000350B5F963C932E935E97DDCB8217930735
:1026100008F09AC08E179F0708F096C0A88DB98D54
:10262000A0935C05B0935D050D85FE85FF8B00933F
:102630005E05F0935F055ACEF4018081882309F48A
:10264000ADC0808190E09093E3038093E203F401B6
:102650008281882309F498C0828190E09093E103FD
:102660008093E0038DCCD40114968C91149790E064
:102670009093D4038093D30319968C9190E0909318
:10268000D2038093D1037CCCD4018C9182FF6BC0A8
:102690008C9111962C91837090E0982F8827820F4F
:1026A000911D9093E6038093E503D4018C91887F7C
:1026B0008093E40365CCF40180818093DD03818104
:1026C0008093D50382818093D60383818093D7033F
:1026D00084818093D80385818093D90386818093F8
:1026E000DA0387818093DB0380858093DC0348CC09
:1026F000D9015E964D915C915F9788279927841B3D
:10270000950B801791070CF476C0E1E0FFEF9196EE
:10271000FC93EE9390978EEF91E0E0E0F0E061E0C3
:102720007FEF37CD4D915C91119719965C934E9345
:10273000189714962D913C911597241B350B1D96D7
:102740003C932E931C9747CDDA0140935C05B093E0
:102750005D052E173F0708F067C01F8B00935E05CD
:1027600010935F05C3CDF40180812181837090E0D7
:10277000982F8827919581959109821B91099093B3
:10278000E6038093E50391CF838190E09195819555
:1027900091099093E1038093E003F2CB818190E073
:1027A0009195819591099093E3038093E2034FCF34
:1027B000E0916102F0916202808182300CF44FC09E
:1027C0002081022E000C330B8091670290E082176B
:1027D00093071CF48081809367021082F894E09143
:1027E0006502F091660280819181789440916D023A
:1027F00050916E024DCB2FEF30E0D8010E94B625EC
:102800009A01550F440B550B0E947A25B901AD85ED
:10281000BE8591963C932E939097F901E150FF4F1E
:10282000C601821B930BB5CC0D85EE85EF8B009313
:102830005E05E0935F055ACD0E947D0A14CE919506
:10284000819591092CCD7195619571091CCDF195FA
:10285000E195F10934CD31952195310929CDE091EA
:102860004302F0914402808182300CF44CC02081FC
:10287000022E000C330B80914B0290E082179307DD
:102880001CF4808180934B021082F894E0914702FF
:10289000F091480280819181789420914F0230918B
:1028A0005002AC01421B530B50935402409353020D
:1028B000A0913B02B0913C02E09139029A010E9442
:1028C0009F25DC01CB010E2E04C0B595A7959795E9
:1028D00087950A94D2F79093400280933F02A0918B
:1028E0003D02B0913E020E949F25DC01CB0104C055
:1028F000B595A79597958795EA95D2F7909342025B
:1029000080934102D6C9E0914502F0914602808150
:102910008230DCF02081022E000C330B80914B02C0
:1029200090E0821793071CF4808180934B02108201
:10293000F894E0914902F0914A0220813181789423
:102940008091510290915202ACCF8091FF0381118E
:10295000B4C11092C1030E94D80A809122049091C0
:102960002304A0912404B09125042091B200BA2F31
:10297000A92F982F8827820F911DA11DB11D80932B
:10298000260490932704A0932804B093290440912F
:102990007D0250917E0260917F0270918002841BC3
:1029A000950BA60BB70B4091730250917402609186
:1029B000750270917602481759076A077B0740F540
:1029C00085E080931701FFEFF09335028091220498
:1029D00090912304A0912404B09125042091B20089
:1029E000BA2FA92F982F8827820F911DA11DB11DE5
:1029F0008093260490932704A0932804B09329047D
:102A000080937D0290937E02A0937F02B093800218
:102A1000AB89BC898C911816E4F52C91022E000C20
:102A2000330B80917C0290E0821793071CF48C9109
:102A300080937C02EB89FC891082AD89BE892D913F
:102A40003C91369527953695279583E0809317011D
:102A500080917202882341F08091790290917A02EC
:102A6000449782179307A8F080917702909178029B
:102A70002817390708F41BC14091790250917A0256
:102A80002417350708F4FCC081E08093720210928D
:102A90001E018091220490912304A0912404B091FE
:102AA00025042091B200BA2FA92F982F8827820FD2
:102AB000911DA11DB11D8093260490932704A0931E
:102AC0002804B093290440918802509189026091B2
:102AD0008A0270918B02841B950BA60BB70B409159
:102AE00081025091820260918302709184024817A2
:102AF00059076A077B0740F586E080931B01BFEF0B
:102B0000B09336028091220490912304A091240472
:102B1000B09125042091B200BA2FA92F982F8827B1
:102B2000820F911DA11DB11D80932604909327044F
:102B3000A0932804B093290480938802909389027B
:102B4000A0938A02B0938B02E989FA8980811816D2
:102B50009CF42081022E000C330B8091850290E0C2
:102B6000821793071CF4808180938502A989BA8912
:102B70001C9283E080931B01809122049091230496
:102B8000A0912404B09125042091B200BA2FA92F5E
:102B9000982F8827820F911DA11DB11D80932604B7
:102BA00090932704A0932804B0932904E091A702EE
:102BB000F091A80280819181A281B3814091A90204
:102BC0005091AA026091AB027091AC02841B950BEC
:102BD000A60BB70B4091AD025091AE026091AF02CF
:102BE0007091B00284179507A607B70708F45EC86E
:102BF00080819181A281B3818093A9029093AA02DE
:102C0000A093AB02B093AC02E0918C02F0918D02E4
:102C100080819091B102981710F48093B1021082D4
:102C2000E0918E02F0918F021082E0919002F0917B
:102C300091021082E0919202F09193021082E09151
:102C40009402F09195021082E0919602F091970221
:102C50001082E0919802F09199021082E0919A021C
:102C6000F0919B021082E0919C02F0919D021082F3
:102C70008091B10280939E021092B1020C94560E84
:102C800061E06093720260917B02281B390B629FA6
:102C9000F001639FF00D1124BA01681B790BCF017D
:102CA0000E9444258AEF861B80931E01F2CE10926B
:102CB00072028AEF80931E01ECCE809122049091E3
:102CC0002304A0912404B09125042091B200BA2FCE
:102CD000A92F982F8827820F911DA11DB11D8093C8
:102CE000260490932704A0932804B09329044091CC
:102CF0000004509101046091020470910304841B4C
:102D0000950BA60BB70B21E081319742A105B105C8
:102D100008F420E02093C1031ECE80E092E090935F
:102D200047058093460510925905109258050C945A
:102D30008F0D813011F00C948F0D10924705109279
:102D4000460580E092E090935905809358050C94D5
:102D50008F0D109247051092460580E09EEF9093EC
:102D60005905809358050C948F0DFFCFFC0170938B
:102D70002F0260932E029EEF9093320290933002C6
:102D80006115710551F01092070110920601109221
:102D9000180173836283CB01089510920B01109286
:102DA0000A0182E08093180173836283CB01089546
:102DB00017BC68BD0895619567BD18BC0895FC01F6
:102DC00070932D0260932C029EEF909331029093AA
:102DD00037026115710559F0109215011092140116
:102DE00087E08093190173836283CB010895109269
:102DF00009011092080181E08093190173836283B5
:102E0000CB0108958FEF90E09C01261B370B309388
:102E10008B0020938A009093890080938800089506
:102E20008FEF90E090938B0080938A0061507F4FEA
:102E300070938900609388000895FC0110821182CC
:102E40001282138275836483578346833187208778
:102E500008950F931F93FC0113821282758364837C
:102E60005783468331872087138702871F910F91ED
:102E700008950F931F93ECE7F5E01382128284EA22
:102E800091E091838083E8E7F5E01382128280EB82
:102E900091E091838083E6E3F5E080E092E0918326
:102EA00080831382128295838483178216822FEF88
:102EB00033E031872087138612861586148617869D
:102EC0001686118A108A938B828B158A148A978BA7
:102ED000868B118E108E338F228F158E148E178E47
:102EE000168E11A210A213A212A215A214A214AE41
:102EF00015AE16AE80E890E0909376058093750548
:102F000081E08093770508E415E09F0148E755E0EC
:102F10006CE775E08AE294E00E942917E2E2F4E0AF
:102F200010821182128213821482158216821782F5
:102F30001092FF0329E332E045E552E066E375E0D5
:102F400085EF93E00E941D171F910F91089580E077
:102F5000089581E0089585E0089586E008958BE066
:102F6000089584E008958CE008958DE008958EE042
:102F700008958FE00895DC01ED91FC910190F081BE
:102F8000E02D09958093F20310921F010895DC0152
:102F9000ED91FC910190F081E02D09958093F20371
:102FA00010921F010895DC01ED91FC910190F081D8
:102FB000E02D09958093F2038AE080931F018091B0
:102FC000DE03882309F44BC0813009F047C0E0914B
:102FD0004001F091410180818093E803E0913E013E
:102FE000F0913F0180818093E903E0913C01F091F1
:102FF0003D0180818093EA03E0913A01F0913B0129
:1030000080818093EB03E0913801F0913901808158
:103010008093EC03E0913601F09137018081809339
:10302000ED03E0913401F091350180818093EE034E
:10303000E0913201F091330180818093EF03E091C0
:103040003001F091310180818093F003E0912E01F5
:10305000F0912F0180818093F10308950895E0910C
:103060005201F091530180818093E803E091500177
:10307000F091510180818093E903E0914E01F0913C
:103080004F0180818093EA03E0914C01F0914D0162
:1030900080818093EB03E0914A01F0914B018081A4
:1030A0008093EC03E0914801F09149018081809385
:1030B000ED03E091BB02F091BC0280818093EE03AE
:1030C000E0914601F091470180818093EF03E09108
:1030D0004401F091450180818093F003E091420129
:1030E000F091430180818093F1030895F894DC010D
:1030F000ED91FC910190F081E02D09958093F20310
:1031000080917505909176059093E8038093E9038B
:1031100080916F0290917002181619060CF048C049
:103120008093EA0380910A0190910B01969587950F
:10313000969587958093EB03809106019091070106
:1031400096958795969587958093EC038091530289
:1031500090915402181619060CF081958093ED0396
:10316000809108019091090196958795969587958C
:103170008093EE03809114019091150196958795A7
:10318000969587958093EF0380911001909111019E
:1031900096958795969587958093F00397B588B512
:1031A000890F8093F1038AE080931F01789408953A
:1031B0008195B6CFDC01ED91FC910190F081E02D7D
:1031C00009958093F2038091750590917605E8EE5C
:1031D000F3E09C0122273F703083818382E080935B
:1031E0001F010895DC01ED91FC910190F081E02D2B
:1031F00009958093F20310921F01089508958AB1F2
:1032000080678AB95C9A579A84B1866084B95F9A5C
:10321000609153027091540229E332E045E552E097
:1032200080916F02909170020C94210717BC18BC1A
:103230008FEF90E090938B0080938A0090938900A9
:10324000809388008AB180678AB95C9A579A84B162
:10325000866084B95F9A08958091BD02833008F03A
:10326000B4C08091E2039091E3038D3091050CF49A
:103270004BC020917E0530917F05232B09F0CEC0F5
:103280008B3F91050CF0A4C0E0915401F0915501E1
:10329000608170E0861797070CF4A2C0E0917C056E
:1032A000F0917D050190F081E02D8CE795E0099586
:1032B0008091BD02833008F056C06091E0037091A8
:1032C000E1036D3071050CF459C080917A0590913D
:1032D0007B05892B09F0B1C06B3F71050CF07DC0F7
:1032E000E0915401F0915501808190E08617970795
:1032F0000CF471C0E0917805F09179050190F081AE
:10330000E02D88E795E00994843F2FEF92070CF0B9
:103310005CC020917E0530917F052130310509F098
:103320006EC086302FEF920714F486E09FEFE09195
:103330005401F0915501608170E0719561957109BA
:10334000681779070CF4BC01E0917C05F0917D05CC
:103350000280F381E02D8CE795E009958091BD0214
:10336000833008F4AACF8FEF90E090938B00809386
:103370008A0090938900809388000895643F8FEFBE
:1033800078078CF780917A0590917B05019751F52C
:10339000CB0166307F4F14F486E09FEFE09154013B
:1033A000F0915501608170E0719561957109681720
:1033B00079070CF4BC01E0917805F0917905028061
:1033C000F381E02D88E795E0099417BC18BC70CF15
:1033D0008AEF90E059CFBC018DCF6AEF70E080CFCB
:1033E000BC015CCFE0917805F09179050480F5810E
:1033F000E02D61E070E088E795E00995B4CFE091B9
:103400007C05F0917D050480F581E02D61E070E0A0
:103410008CE795E0099517BC18BC4ACFE0917C0574
:10342000F0917D050480F581E02D60E070E08CE78F
:1034300095E0099517BC18BC3BCFE0917805F09159
:1034400079050480F581E02D60E070E0D4CF0F9322
:103450001F93CF93DF93C091E503D091E603809152
:103460002C0490912D04803E2FE1920790F49C0152
:1034700036952795329522952F7023273F70232765
:103480002C173D0724F5019690932D0480932C046E
:10349000E901CB3FD105A4F4C6304FEFD40714F4B3
:1034A000C6E0DFEFE0912A048E2F90E0FC01319717
:1034B000E830F10540F0DF91CF911F910F91089511
:1034C000CAEFD0E0EFCFEC5BFF4F0C949925442777
:1034D0005527421B530B9E01C417D507A4F69A012A
:1034E000D2CFE0913404F091350486859785181683
:1034F00019060CF02FC39927FC01E65DFB4FA4854C
:10350000B0E0B195A195B1099E010E949F2597FD5C
:103510000DC3BB2797FDBA95A92F982F872F009130
:103520002E0410912F044091BD02433008F01BC2BD
:103530008D3091050CF43DC2F80122813381232B9B
:1035400009F007C2E0915401F0915501208130E06B
:10355000BC01281739070CF4BBC2D801ED91FC91CE
:103560000190F081E02DC8010995E0913204F091BD
:10357000330486859785181619060CF0C8C099275C
:10358000FC01E65DFB4FA485B0E052C0E09132043F
:10359000F091330486859785181619060CF0E5C25C
:1035A0009927FC01E65DFB4FA485B0E09E010E94D7
:1035B0009F2597FDC0C2BB2797FDBA95A92F982FCD
:1035C000872F00912E0410912F044091BD024330AB
:1035D00008F0A3C18D3091050CF42FC2F8012281AF
:1035E0003381232B09F08FC1E0915401F0915501F3
:1035F000208130E0BC01281739070CF467C2D801DC
:10360000ED91FC910190F081E02DC8010995E091C8
:103610003404F091350486859785181619060CF444
:10362000CCC08195E82FF0E0E65DFB4FA485B0E0CB
:10363000B195A195B1099E010E949F2597FFC8C031
:1036400061507F4F8F4F9F4FC3C0E0913204F09184
:10365000330486859785181619060CF0A9C2992798
:10366000FC01E65DFB4FA485B0E0B195A195B109E1
:103670009DCFE0913204F09133048685978518162A
:1036800019060CF08AC29927FC01E65DFB4FA48560
:10369000B0E0B195A195B1099E010E949F2597FDCB
:1036A00054C2BB2797FDBA95A92F982F872F009159
:1036B0002E0410912F044091BD02433008F040C108
:1036C0008D3091050CF4DCC1F80122813381232B6C
:1036D00009F02CC1E0915401F0915501208130E0B6
:1036E000BC01281739070CF4EFC1D801ED91FC910A
:1036F0000190F081E02DC8010995E0913404F0912A
:10370000350486859785181619060CF438CF8195EF
:10371000E82FF0E0E65DFB4FA485B0E0B195A19500
:10372000B10986CFE0913404F09135048685978500
:10373000181619060CF052C29927FC01E65DFB4FE2
:10374000A485B0E09E010E949F2597FDF9C1BB278B
:1037500097FDBA95A92F982F872F00912E041091CD
:103760002F044091BD02433008F010C18D30910507
:103770000CF441C1F80122813381232B09F0FCC0F4
:10378000E0915401F0915501208130E0BC012817EF
:1037900039070CF497C1D801ED91FC910190F081AB
:1037A000E02DC8010995E0913204F091330486853B
:1037B0009785181619060CF034CF9927FC01E65DA1
:1037C000FB4FA485B0E09E010E949F2597FD38CF56
:1037D000BB2797FDBA95A92F982F872FC09130044A
:1037E000D09131044091BD02433008F05EC08D306D
:1037F00091050CF465C02A813B81232B09F04CC054
:10380000E0915401F0915501208130E0BC0128176E
:1038100039070CF4B901E881F9810190F081E02DBC
:10382000CE01DF91CF911F910F910994E091340463
:10383000F091350486859785181619060CF0C3C1DA
:103840009927FC01E65DFB4FA485B0E0B195A195F9
:10385000B10978CFE0913404F091350486859785DD
:10386000181619060CF091C19927FC01E65DFB4F73
:10387000A485B0E049CEE0913204F091330486850E
:103880009785181619060CF078C19927FC01E65D9A
:10389000FB4FA485B0E000CFE881F9810480F58179
:1038A000E02D60E070E0CE010995E881F9810680A5
:1038B000F781E02DCE01DF91CF911F910F910994F7
:1038C000843FEFEF9E078CF72A813B812130310541
:1038D00009F065C0E0915401F0915501208130E07C
:1038E000319521953109BC01821793070CF4B90178
:1038F000E881F9810280F381E02DCE01DF91CF9143
:103900001F910F9109940190F081E02D0480F581C1
:10391000E02D60E070E0C8010995D801ED91FC91BF
:103920000680F781E02DC801099571CE0190F081E4
:10393000E02D0480F581E02D60E070E0C80109957C
:10394000D801ED91FC910680F781E02DC801099521
:10395000D4CE0190F081E02D0480F581E02D60E06F
:1039600070E0C8010995D801ED91FC910680F781BE
:10397000E02DC8010995F9CD0190F081E02D04807A
:10398000F581E02D60E070E0C8010995D801ED9166
:10399000FC910680F781E02DC801099504CFE881EC
:1039A000F9810480F581E02D61E070E0CE01099598
:1039B0007CCF843FEFEF9E07B4F6F801228133817C
:1039C0002130310509F091C0E0915401F091550189
:1039D000208130E0319521953109BC018217930790
:1039E0000CF4B901D801ED91FC910280F381E02D36
:1039F000C8010995BACD843FEFEF9E073CF6F80168
:103A0000228133812130310509F064C0E0915401F5
:103A1000F0915501208130E0319521953109BC01AB
:103A2000821793070CF4B901D801ED91FC91028043
:103A3000F381E02DC8010995B6CE843FEFEF9E07D4
:103A40000CF06BCFF801228133812130310509F070
:103A500062C0E0915401F0915501208130E0319530
:103A600021953109BC01821793070CF4B901D801E3
:103A7000ED91FC910280F381E02DC8010995C7CD3D
:103A8000843FEFEF9E070CF05BCFF801228133817A
:103A900021303105A9F5E0915401F09155012081C3
:103AA00030E0319521953109BC01821793070CF460
:103AB000B901D801ED91FC910280F381E02DC8019C
:103AC00009951BCEB90167CEB9010FCEB90197CDCB
:103AD000B90143CD0190F081E02D0480F581E02D06
:103AE00061E070E0C801099551CF0190F081E02DAF
:103AF0000480F581E02D61E070E0C801099533CFC5
:103B00000190F081E02D0480F581E02D61E070E00E
:103B1000C801099515CF0190F081E02D0480F58151
:103B2000E02D61E070E0C8010995F7CE61507F4F4C
:103B30008F4F9F4FEECC61507F4F8F4F9F4F3BCDAC
:103B400061507F4F8F4F9F4F02CE61507F4F8F4FFD
:103B50009F4FA7CD8195E82FF0E0E65DFB4FA48550
:103B6000B0E0B195A195B109CCCC8195E82FF0E0FA
:103B7000E65DFB4FA485B0E078CD8195E82FF0E0BD
:103B8000E65DFB4FA485B0E084CD8195E82FF0E0A1
:103B9000E65DFB4FA485B0E0B4CC8195E82FF0E062
:103BA000E65DFB4FA485B0E0B195A195B10971CD5B
:103BB0008195E82FF0E0E65DFB4FA485B0E0B1957C
:103BC000A195B10952CD8195E82FF0E0E65DFB4F5C
:103BD000A485B0E0B195A195B10938CE8195E82FC3
:103BE000F0E0E65DFB4FA485B0E030CECF93DF93ED
:103BF000DC01ED91FC910190F081E02D099580931D
:103C0000F20380E090E00E946B04C8EED3E096954A
:103C1000879596958795888381E090E00E946B0454
:103C20009695879596958795898382E090E00E9486
:103C30006B0496958795969587958A8383E090E0A7
:103C40000E946B0496958795969587958B8384E063
:103C500090E00E946B0496958795969587958C8346
:103C600085E090E00E946B049695879596958795E0
:103C70008D831E821F828091D30388878091D10318
:103C800089878AE080931F01DF91CF9108958C305E
:103C9000910508F00DC1FC01E45BFF4F0C949925E0
:103CA000F999FECF85EF91E092BD81BDF89A20B5DC
:103CB00030E0322F2227F999FECF81E092E092BDC9
:103CC00081BDF89A80B5280F311DF3C0F999FECF58
:103CD00086EF91E092BD81BDF89A20B530E0322F99
:103CE0002227F999FECF82E092E092BD81BDF89A39
:103CF00080B5280F311DDDC0F999FECF87EF91E027
:103D000092BD81BDF89A20B530E0322F2227F99973
:103D1000FECF83E092E092BD81BDF89A80B5280F76
:103D2000311DC7C0F999FECF88EF91E092BD81BDEA
:103D3000F89A20B530E0322F2227F999FECF84E09F
:103D400092E092BD81BDF89A80B5280F311DB1C0B7
:103D5000F999FECF89EF91E092BD81BDF89A20B527
:103D600030E0322F2227F999FECF85E092E092BD14
:103D700081BDF89A80B5280F311D9BC0F999FECFFF
:103D80008AEF91E092BD81BDF89A20B530E0322FE4
:103D90002227F999FECF86E092E092BD81BDF89A84
:103DA00080B5280F311D85C0F999FECF8BEF91E0CA
:103DB00092BD81BDF89A20B530E0322F2227F999C3
:103DC000FECF87E092E092BD81BDF89A80B5280FC2
:103DD000311D6FC0F999FECF8CEF91E092BD81BD8E
:103DE000F89A20B530E0322F2227F999FECF88E0EB
:103DF00092E092BD81BDF89A80B5280F311D59C05F
:103E0000F999FECF8DEF91E092BD81BDF89A20B572
:103E100030E0322F2227F999FECF89E092E092BD5F
:103E200081BDF89A80B5280F311D43C0F999FECFA6
:103E30008EEF91E092BD81BDF89A20B530E0322F2F
:103E40002227F999FECF8AE092E092BD81BDF89ACF
:103E500080B5280F311D2DC0F999FECF8FEF91E06D
:103E600092BD81BDF89A20B530E0322F2227F99912
:103E7000FECF8BE092E092BD81BDF89A80B5280F0D
:103E8000311D17C0F999FECF80E092E092BD81BD4F
:103E9000F89A20B530E0322F2227F999FECF8CE036
:103EA00092E092BD81BDF89A80B5280F311D01C006
:103EB0000895822F932F0895DC01ED91FC910190DC
:103EC000F081E02D09958093F2038AE080931F0131
:103ED0008091DF03823009F417C108F45DC084309B
:103EE00009F4B5C008F445C1853009F00BC1109242
:103EF000F1032091140130911501369527953695DF
:103F000027952093F00320911201309113013695EB
:103F10002795369527952093EF0320911001309136
:103F2000110136952795369527952093EE0320911C
:103F30000E0130910F0136952795369527952093E0
:103F4000ED0320910C0130910D01369527953695A2
:103F500027952093EC0320910A0130910B013695AF
:103F60002795369527952093EB03209108013091F2
:103F7000090136952795369527952093EA032091D8
:103F800006013091070136952795369527952093A0
:103F9000E9038093E8030895882309F420C1813060
:103FA00009F0B1C08093E80385E090E00E94C30B64
:103FB00096958795969587958093E90384E090E0A0
:103FC0000E94C30B96958795969587958093EA03F3
:103FD00085E090E00E946B0496958795969587956D
:103FE0008093EB0384E090E00E946B0496958795A4
:103FF000969587958093EC0383E090E00E946B0494
:1040000096958795969587958093ED0382E090E04D
:104010000E946B0496958795969587958093EE03FD
:1040200081E090E00E946B04969587959695879520
:104030008093EF0380E090E00E946B049695879553
:10404000969587958093F0031092F103089540911F
:1040500022045091230460912404709125049091CE
:10406000B200762F652F542F4427490F511D611D33
:10407000711D409326045093270460932804709385
:10408000290496E076956795579547959A95D1F7C7
:104090004093F103E0919A02F0919B0290819093FA
:1040A000F003E0919802F091990290819093EF03D0
:1040B000E0919602F091970290819093EE03E09147
:1040C0009402F091950290819093ED03E091920219
:1040D000F091930290819093EC03E0919002F09123
:1040E000910290819093EB03E0918E02F0918F0208
:1040F00090819093EA0390919E029093E9038093BC
:10410000E8030895089508958093E80383E090E01C
:104110000E94471E9093E90383E090E00E94471EAF
:104120008093EA0382E090E00E94471E9093EB03A5
:1041300082E090E00E94471E8093EC0381E090E0D3
:104140000E94471E9093ED0381E090E00E94471E7D
:104150008093EE0380E090E00E94471E9093EF036F
:1041600080E090E00E94471E8093F0031092F103DC
:10417000089583E08093E80387E090E00E94471E63
:104180009093E90387E090E00E94471E8093EA0342
:1041900086E090E00E94471E9093EB0386E090E05B
:1041A0000E94471E8093EC0385E090E00E94471E2A
:1041B0009093ED0385E090E00E94471E8093EE030C
:1041C00084E090E00E94471E9093EF0384E090E02B
:1041D0000E94471E8093F0031092F10308951092FD
:1041E000E80380915A058093E90380917B028093D4
:1041F000EA03809179028093EB03809177028093A8
:10420000EC0380912B048093ED0380912A0480932A
:10421000EE038091BF029091C0029093EF038093D0
:10422000F0038CE08093F1030895CF93DF93DC01DA
:10423000ED91FC910190F081E02D09958093F203BE
:10424000C8EED3E08091DD03888381E090E00E9496
:10425000F30B898380E090E00E94F30B8A830E9435
:104260000B0C8B8380E090E00E94140C8C8381E027
:1042700090E00E94140C8D8382E090E00E94140C68
:104280008E831F82188619868AE080931F01DF9132
:10429000CF910895CF93DF93EC010E949B0B8D810A
:1042A0009E81892B19F0DF91CF91089581E090E0F4
:1042B0009E838D83DF91CF910C942606CF93DF935D
:1042C000EC010E949B0B8D819E81892B71F4609182
:1042D000D3037091D4038091D1039091D2030E94B3
:1042E000110781E090E09E838D83DF91CF91089547
:1042F000CF92DF92EF92FF920F931F93CF93DF93B2
:10430000EC010E949B0B8D819E81892B41F481E001
:1043100090E09E838D838091DD03882349F0DF91B7
:10432000CF911F910F91FF90EF90DF90CF90089564
:10433000E090DA03F12C0091D90310E02091D8032A
:1043400030E04091D70350E06091D60370E0809157
:10435000D503CC24C394D12C90E00E94D905DFCFA3
:104360000C949B0B0C949B0B0C949B0B0E94CA21EE
:104370000C94AB220E94A42258F00E949D2240F08F
:1043800029F45F3F29F00C94942251110C94DF2200
:104390000C949A220E94BC2268F39923B1F355230E
:1043A00091F3951B550BBB27AA2762177307840748
:1043B00038F09F5F5F4F220F331F441FAA1FA9F3DE
:1043C00035D00E2E3AF0E0E832D091505040E695CC
:1043D000001CCAF72BD0FE2F29D0660F771F881F2D
:1043E000BB1F261737074807AB07B0E809F0BB0B20
:1043F000802DBF01FF2793585F4F3AF09E3F510534
:1044000078F00C9494220C94DF225F3FE4F3983E02
:10441000D4F3869577956795B795F7959F5FC9F71C
:10442000880F911D9695879597F90895E1E0660F9D
:10443000771F881FBB1F621773078407BA0720F016
:10444000621B730B840BBA0BEE1F88F7E09508957F
:104450000E94C42288F09F5798F0B92F9927B7512E
:10446000B0F0E1F0660F771F881F991F1AF0BA9518
:10447000C9F714C0B13091F00E94DE22B1E0089576
:104480000C94DE22672F782F8827B85F39F0B93F68
:10449000CCF3869577956795B395D9F73EF49095CB
:1044A0008095709561957F4F8F4F9F4F0895E89449
:1044B00009C097FB3EF490958095709561957F4F6C
:1044C0008F4F9F4F9923A9F0F92F96E9BB2793951A
:1044D000F695879577956795B795F111F8CFFAF42A
:1044E000BB0F11F460FF1BC06F5F7F4F8F4F9F4F5B
:1044F00016C0882311F096E911C0772321F09EE8B9
:10450000872F762F05C0662371F096E8862F70E01E
:1045100060E02AF09A95660F771F881FDAF7880FF8
:104520009695879597F9089597F99F6780E870E0C9
:1045300060E008959FEF80EC089500240A94161619
:10454000170618060906089500240A941216130681
:10455000140605060895092E0394000C11F488230F
:1045600052F0BB0F40F4BF2B11F460FF04C06F5F2B
:104570007F4F8F4F9F4F089557FD9058440F551F01
:1045800059F05F3F71F04795880F97FB991F61F0D5
:104590009F3F79F087950895121613061406551F4C
:1045A000F2CF4695F1DF08C0161617061806991FB8
:1045B000F1CF86957105610508940895E894BB27AD
:1045C00066277727CB0197F908950E94F8220C946B
:1045D000AB220E949D2238F00E94A42220F0952355
:1045E00011F00C9494220C949A2211240C94DF2242
:1045F0000E94BC2270F3959FC1F3950F50E0551FA8
:10460000629FF001729FBB27F00DB11D639FAA2727
:10461000F00DB11DAA1F649F6627B00DA11D661F76
:10462000829F2227B00DA11D621F739FB00DA11D97
:10463000621F839FA00D611D221F749F3327A00D51
:10464000611D231F849F600D211D822F762F6A2FED
:1046500011249F5750409AF0F1F088234AF0EE0F52
:10466000FF1FBB1F661F771F881F91505040A9F77F
:104670009E3F510580F00C9494220C94DF225F3F02
:10468000E4F3983ED4F3869577956795B795F795BB
:10469000E7959F5FC1F7FE2B880F911D9695879533
:1046A00097F90895FA01EE0FFF1F309621053105A5
:1046B000A1F16115710561F48038BFE39B0749F1F1
:1046C00068949038810561F08038BFEF9B0741F016
:1046D00099234AF5FF3FE1053105210519F1E894D9
:1046E0000894E795D901AA2329F4AB2FBE2FF85FD0
:1046F000D0F310C0FF5F70F4A695E0F7F73950F0E3
:1047000019F0FF3A38F49F779F930DD00F9007FC74
:104710009058089546F00C949A2260E070E080E88A
:104720009FE308954FE79F775F934F933F932F93B6
:104730000E944D242F913F914F915F910E94E5225D
:104740000C94AA2329F416F00C9494220C94DE22E3
:104750000C949A220E94C422A8F39638A0F707F876
:104760000F92E8942BE33AEA48EB5FE70E94FB22C2
:104770000F920F920F924DB75EB70F920E94952441
:10478000E0EBF0E00E94DC234F915F91EF91FF910D
:10479000E595EE1FFF1F49F0FE57E0684427EE0F36
:1047A000441FFA95E1F74195550B0E940F240F9095
:1047B00007FE0C9403240895DF93CF931F930F9368
:1047C000FF92EF92DF927B018C01689406C0DA2E93
:1047D000EF010E94F822FE01E894A5912591359100
:1047E00045915591A6F3EF010E94E124FE01970146
:1047F000A801DA9469F7DF90EF90FF900F911F9175
:10480000CF91DF9108959B01AC0160E070E080E8FA
:104810009FE30C94B6210C9494220C9436250E94AC
:10482000C422D8F39923C9F3940F511DA3F39150D7
:10483000504094F059F0882332F0660F771F881F9C
:1048400091505040C1F79E3F51052CF7880F911DA4
:104850009695879597F908955F3FACF0983E9CF048
:10486000BB27869577956795B79508F4B1609395C2
:10487000C1F7BB0F58F711F460FFE8CF6F5F7F4FB0
:104880008F4F9F4FE3CF0C94DF2216F00C94362508
:104890000C949A2268940C9494220E94C422A8F347
:1048A0009923C1F3AEF3DF93CF931F930F93FF923E
:1048B000C92FDD2788232AF02197660F771F881FCD
:1048C000DAF720E030E040E85FEB9FE3883920F042
:1048D000803E38F021968F770E94CA24E8EDF0E000
:1048E00004C00E94CA24E5E0F1E00E94DC238B01B1
:1048F000BE01EC01FB2E6F5771097595771F880B70
:10490000990B0E94592228E132E741E35FE30E94BC
:10491000F822AF2D9801AE01FF900F911F91CF911A
:10492000DF910E94E1240C94AB22FA01DC01AA0F72
:10493000BB1F9B01AC01BF5728F422273327442714
:10494000507820C0B75190F4AB2F0024469537958E
:104950002795011CA395D2F3002071F0220F331F7D
:10496000441FB395DAF30ED00C94C924613071055D
:10497000A0E88A07B94630F49B01AC016627772787
:1049800088279078309621F02083318342835383A7
:1049900008955058BB27AA270E94E1240C94AB220B
:1049A0000E949D2238F00E94A42220F039F49F3FFB
:1049B00019F426F40C949A220EF4E095E7FB0C947B
:1049C0009422E92F0E94BC2258F3BA17620773079A
:1049D0008407950720F079F4A6F50C94DE220EF4F6
:1049E000E0950B2EBA2FA02D0B01B90190010C01FF
:1049F000CA01A0011124FF27591B99F0593F50F417
:104A0000503E68F11A16F040A22F232F342F44276E
:104A1000585FF3CF469537952795A795F040539566
:104A2000C9F77EF41F16BA0B620B730B840BBAF036
:104A30009150A1F0FF0FBB1F661F771F881FC2F7A1
:104A40000EC0BA0F621F731F841F48F487957795B5
:104A50006795B795F7959E3F08F0B0CF9395880F6F
:104A600008F09927EE0F9795879508959F3F31F0AD
:104A7000915020F4879577956795B795880F911D8C
:104A80009695879597F90895AA1BBB1B51E107C01E
:104A9000AA1FBB1FA617B70710F0A61BB70B881FCE
:104AA000991F5A95A9F780959095BC01CD0108955D
:104AB000A1E21A2EAA1BBB1BFD010DC0AA1FBB1F22
:104AC000EE1FFF1FA217B307E407F50720F0A21B94
:104AD000B30BE40BF50B661F771F881F991F1A9401
:104AE00069F760957095809590959B01AC01BD012B
:104AF000CF010895052E97FB1EF400940E94912586
:104B000057FD07D00E94582507FC03D04EF40C94A3
:104B1000912550954095309521953F4F4F4F5F4FD0
:104B2000089590958095709561957F4F8F4F9F4F19
:104B30000895EE0FFF1F0590F491E02D09940E9457
:104B4000A725332312F48A1B9B0B0C94B825A29F34
:104B5000B001B39FC001A39F700D811D1124911D51
:104B6000B29F700D811D1124911D08950E94A725EB
:104B7000B7FF0895821B930B08950F931F93CF9354
:104B8000DF938230910510F482E090E0E09182059D
:104B9000F091830520E030E0A0E0B0E0309719F11B
:104BA000408151810281138148175907C8F0841749
:104BB000950769F4109731F012960C93129713969B
:104BC0001C9327C0009382051093830522C02115F2
:104BD000310519F04217530718F49A01BD01EF018E
:104BE000DF01F801DBCF21153105F9F0281B390B66
:104BF0002430310580F48A819B816115710521F093
:104C0000FB019383828304C0909383058093820584
:104C1000FE01329644C0FE01E20FF31F819391938F
:104C200022503109398328833AC020918005309180
:104C30008105232B41F4209102013091030130932F
:104C400081052093800520910001309101012115FB
:104C5000310541F42DB73EB7409104015091050153
:104C6000241B350BE0918005F0918105E217F307D5
:104C7000A0F42E1B3F0B2817390778F0AC014E5FCC
:104C80005F4F2417350748F04E0F5F1F5093810583
:104C9000409380058193919302C0E0E0F0E0CF0162
:104CA000DF91CF911F910F910895CF93DF930097DC
:104CB00009F481C0FC01329713821282A09182050F
:104CC000B0918305109781F420813181820F931F69
:104CD00020918005309181052817390751F5F0930F
:104CE0008105E093800567C0ED0120E030E0CE173C
:104CF000DF0740F44A815B819E0141155105F1F0C7
:104D0000EA01F5CFD383C28340815181840F951F7F
:104D1000C817D90759F488819981840F951F029685
:104D2000918380838A819B819383828321153105BE
:104D300029F4F0938305E09382053DC0E901FB83EC
:104D4000EA8349915991C40FD51FEC17FD0761F40F
:104D500080819181840F951F0296E9019983888350
:104D6000828193819B838A83E0E0F0E012968D91AB
:104D70009C911397009719F0FD01DC01F7CF8D91FD
:104D80009C9111979D012E5F3F4F820F931F2091A1
:104D90008005309181052817390769F4309729F487
:104DA000109283051092820502C013821282B09382
:104DB0008105A0938005DF91CF910895F894FFCFEE
:104DC0000000840520000002000000020002000232
:104DD0000002000000020403020104030403FAFFBE
:104DE0000C010E0110013302340235023602BE02FC
:104DF000BE02BE02BE02BE02BE02BE02BE027202FF
:104E0000C103BE02BE02BE02F503F603BE02C20328
:104E1000C303BE021E0100000000B516B516B5168C
:104E2000FFFFFFFEFDFCFBFAF8F6F4F2F0EDEAE717
:104E3000E4E1DDDAD6D2CEC9C5C0BCB7B2ADA8A216
:104E40009D98928C87817B76706A645F59534E4837
:104E5000423D38322D28231E1A16110D0A07040070
:104E600000000000D816DB16B6168D0B00000000FF
:104E700002171017DF16900BE8031F01F203BD02A3
:104E8000C403C503C603D00300000000A717B42164
:104E9000BB1700000000A9171619C7170000000073
:104EA000AB17B2215C1F00000000AD17B021D31773
:104EB00000000000AF172C19761800000000B11791
:104EC000271ADA1800000000B31778211521000016
:104ED0000000B5175E21F61D00000000B7174A213B
:0C4EE000F21800000000B917FF18FE18BF
:00000001FF
